{
  "contractName": "degenExchangeRegistry",
  "abi": [
    {
      "inputs": [
        {
          "internalType": "uint64",
          "name": "subscriptionId_",
          "type": "uint64"
        },
        {
          "internalType": "address",
          "name": "feeWallet_",
          "type": "address"
        }
      ],
      "stateMutability": "nonpayable",
      "type": "constructor"
    },
    {
      "inputs": [
        {
          "internalType": "uint256",
          "name": "requestId_",
          "type": "uint256"
        }
      ],
      "name": "FaildToRequestRandomNumbers",
      "type": "error"
    },
    {
      "inputs": [
        {
          "internalType": "bytes4",
          "name": "interfaceId_",
          "type": "bytes4"
        }
      ],
      "name": "InvaliedContractInterfce",
      "type": "error"
    },
    {
      "inputs": [
        {
          "internalType": "address",
          "name": "have",
          "type": "address"
        },
        {
          "internalType": "address",
          "name": "want",
          "type": "address"
        }
      ],
      "name": "OnlyCoordinatorCanFulfill",
      "type": "error"
    },
    {
      "anonymous": false,
      "inputs": [
        {
          "indexed": false,
          "internalType": "address",
          "name": "depositor_",
          "type": "address"
        },
        {
          "indexed": false,
          "internalType": "address",
          "name": "nftContractAddress_",
          "type": "address"
        },
        {
          "indexed": false,
          "internalType": "uint256",
          "name": "tokenId_",
          "type": "uint256"
        }
      ],
      "name": "DepositedNFT",
      "type": "event"
    },
    {
      "anonymous": false,
      "inputs": [
        {
          "indexed": false,
          "internalType": "address",
          "name": "drawer_",
          "type": "address"
        },
        {
          "indexed": false,
          "internalType": "address",
          "name": "nftContractAddress_",
          "type": "address"
        },
        {
          "indexed": false,
          "internalType": "uint256",
          "name": "tokenId_",
          "type": "uint256"
        },
        {
          "indexed": false,
          "internalType": "uint256",
          "name": "drawId_",
          "type": "uint256"
        }
      ],
      "name": "DrawComplete",
      "type": "event"
    },
    {
      "anonymous": false,
      "inputs": [
        {
          "indexed": false,
          "internalType": "address",
          "name": "drawer_",
          "type": "address"
        },
        {
          "indexed": false,
          "internalType": "uint256",
          "name": "drawId_",
          "type": "uint256"
        }
      ],
      "name": "DrawInitiated",
      "type": "event"
    },
    {
      "anonymous": false,
      "inputs": [
        {
          "indexed": false,
          "internalType": "address",
          "name": "depositor_",
          "type": "address"
        },
        {
          "indexed": false,
          "internalType": "address",
          "name": "nftContractAddress_",
          "type": "address"
        },
        {
          "indexed": false,
          "internalType": "uint256",
          "name": "tokenId_",
          "type": "uint256"
        }
      ],
      "name": "GiftedNFT",
      "type": "event"
    },
    {
      "anonymous": false,
      "inputs": [
        {
          "indexed": true,
          "internalType": "address",
          "name": "previousOwner",
          "type": "address"
        },
        {
          "indexed": true,
          "internalType": "address",
          "name": "newOwner",
          "type": "address"
        }
      ],
      "name": "OwnershipTransferred",
      "type": "event"
    },
    {
      "inputs": [],
      "name": "owner",
      "outputs": [
        {
          "internalType": "address",
          "name": "",
          "type": "address"
        }
      ],
      "stateMutability": "view",
      "type": "function",
      "constant": true
    },
    {
      "inputs": [],
      "name": "renounceOwnership",
      "outputs": [],
      "stateMutability": "nonpayable",
      "type": "function"
    },
    {
      "inputs": [
        {
          "internalType": "address",
          "name": "newOwner",
          "type": "address"
        }
      ],
      "name": "transferOwnership",
      "outputs": [],
      "stateMutability": "nonpayable",
      "type": "function"
    },
    {
      "inputs": [
        {
          "internalType": "address",
          "name": "addressForNFTContract_",
          "type": "address"
        },
        {
          "internalType": "uint256",
          "name": "tokenId_",
          "type": "uint256"
        },
        {
          "internalType": "bytes4",
          "name": "interfaceId_",
          "type": "bytes4"
        }
      ],
      "name": "EnterNFTDraw",
      "outputs": [],
      "stateMutability": "payable",
      "type": "function",
      "payable": true
    },
    {
      "inputs": [
        {
          "internalType": "address",
          "name": "addressForNFTContract_",
          "type": "address"
        },
        {
          "internalType": "uint256",
          "name": "tokenId_",
          "type": "uint256"
        },
        {
          "internalType": "bytes4",
          "name": "interfaceId_",
          "type": "bytes4"
        }
      ],
      "name": "submitNFT",
      "outputs": [],
      "stateMutability": "nonpayable",
      "type": "function"
    },
    {
      "inputs": [],
      "name": "TriggerDraw",
      "outputs": [],
      "stateMutability": "nonpayable",
      "type": "function"
    },
    {
      "inputs": [
        {
          "internalType": "uint256",
          "name": "drawId_",
          "type": "uint256"
        }
      ],
      "name": "forceFullfillTrigger",
      "outputs": [],
      "stateMutability": "nonpayable",
      "type": "function"
    },
    {
      "inputs": [
        {
          "internalType": "uint256",
          "name": "requestId",
          "type": "uint256"
        },
        {
          "internalType": "uint256[]",
          "name": "randomWords",
          "type": "uint256[]"
        }
      ],
      "name": "rawFulfillRandomWords",
      "outputs": [],
      "stateMutability": "nonpayable",
      "type": "function"
    },
    {
      "inputs": [
        {
          "internalType": "bytes4",
          "name": "interfaceId_",
          "type": "bytes4"
        }
      ],
      "name": "supportsInterface",
      "outputs": [
        {
          "internalType": "bool",
          "name": "",
          "type": "bool"
        }
      ],
      "stateMutability": "view",
      "type": "function",
      "constant": true
    },
    {
      "inputs": [
        {
          "internalType": "address",
          "name": "operator_",
          "type": "address"
        },
        {
          "internalType": "address",
          "name": "from_",
          "type": "address"
        },
        {
          "internalType": "uint256",
          "name": "tokenId_",
          "type": "uint256"
        },
        {
          "internalType": "bytes",
          "name": "data_",
          "type": "bytes"
        }
      ],
      "name": "onERC721Received",
      "outputs": [
        {
          "internalType": "bytes4",
          "name": "",
          "type": "bytes4"
        }
      ],
      "stateMutability": "pure",
      "type": "function",
      "constant": true
    },
    {
      "inputs": [
        {
          "internalType": "address",
          "name": "operator_",
          "type": "address"
        },
        {
          "internalType": "address",
          "name": "from_",
          "type": "address"
        },
        {
          "internalType": "uint256",
          "name": "id_",
          "type": "uint256"
        },
        {
          "internalType": "uint256",
          "name": "value_",
          "type": "uint256"
        },
        {
          "internalType": "bytes",
          "name": "data_",
          "type": "bytes"
        }
      ],
      "name": "onERC1155Received",
      "outputs": [
        {
          "internalType": "bytes4",
          "name": "",
          "type": "bytes4"
        }
      ],
      "stateMutability": "pure",
      "type": "function",
      "constant": true
    },
    {
      "inputs": [],
      "name": "removeETH",
      "outputs": [],
      "stateMutability": "payable",
      "type": "function",
      "payable": true
    },
    {
      "inputs": [
        {
          "internalType": "uint256",
          "name": "NFTIndex_",
          "type": "uint256"
        }
      ],
      "name": "removeNFTEntryFromDraw",
      "outputs": [],
      "stateMutability": "nonpayable",
      "type": "function"
    },
    {
      "inputs": [
        {
          "internalType": "uint256",
          "name": "newMin_",
          "type": "uint256"
        }
      ],
      "name": "setNewMinNFT",
      "outputs": [],
      "stateMutability": "nonpayable",
      "type": "function"
    },
    {
      "inputs": [
        {
          "internalType": "uint32",
          "name": "newGaslimit_",
          "type": "uint32"
        }
      ],
      "name": "setCallbackGasLimit",
      "outputs": [],
      "stateMutability": "nonpayable",
      "type": "function"
    },
    {
      "inputs": [
        {
          "internalType": "bool",
          "name": "paused_",
          "type": "bool"
        }
      ],
      "name": "setDrawPaused",
      "outputs": [],
      "stateMutability": "nonpayable",
      "type": "function"
    },
    {
      "inputs": [
        {
          "internalType": "uint256",
          "name": "amount_",
          "type": "uint256"
        }
      ],
      "name": "setDrawFee",
      "outputs": [],
      "stateMutability": "nonpayable",
      "type": "function"
    },
    {
      "inputs": [],
      "name": "getAllTokensInDraw",
      "outputs": [
        {
          "components": [
            {
              "internalType": "address",
              "name": "contractOfToken",
              "type": "address"
            },
            {
              "internalType": "address",
              "name": "ownerAddress",
              "type": "address"
            },
            {
              "internalType": "uint256",
              "name": "tokenId",
              "type": "uint256"
            },
            {
              "internalType": "bytes4",
              "name": "interfaceId",
              "type": "bytes4"
            }
          ],
          "internalType": "struct IdegenExchangeData.TokenData[]",
          "name": "",
          "type": "tuple[]"
        }
      ],
      "stateMutability": "view",
      "type": "function",
      "constant": true
    },
    {
      "inputs": [],
      "name": "getNFTsDepositedCount",
      "outputs": [
        {
          "internalType": "uint256",
          "name": "",
          "type": "uint256"
        }
      ],
      "stateMutability": "view",
      "type": "function",
      "constant": true
    },
    {
      "inputs": [],
      "name": "getDrawFee",
      "outputs": [
        {
          "internalType": "uint256",
          "name": "",
          "type": "uint256"
        }
      ],
      "stateMutability": "view",
      "type": "function",
      "constant": true
    },
    {
      "inputs": [],
      "name": "getAvalabuleNFTsInDraw",
      "outputs": [
        {
          "internalType": "uint256",
          "name": "",
          "type": "uint256"
        }
      ],
      "stateMutability": "view",
      "type": "function",
      "constant": true
    },
    {
      "inputs": [],
      "name": "getTotalDrawsHappened",
      "outputs": [
        {
          "internalType": "uint256",
          "name": "",
          "type": "uint256"
        }
      ],
      "stateMutability": "view",
      "type": "function",
      "constant": true
    },
    {
      "inputs": [
        {
          "internalType": "address",
          "name": "playersAddress_",
          "type": "address"
        }
      ],
      "name": "getAddressRemainingPlays",
      "outputs": [
        {
          "internalType": "uint256",
          "name": "",
          "type": "uint256"
        }
      ],
      "stateMutability": "view",
      "type": "function",
      "constant": true
    },
    {
      "inputs": [],
      "name": "getMaxEntrysPerWallet",
      "outputs": [
        {
          "internalType": "uint256",
          "name": "",
          "type": "uint256"
        }
      ],
      "stateMutability": "view",
      "type": "function",
      "constant": true
    },
    {
      "inputs": [],
      "name": "getPendingDrawCount",
      "outputs": [
        {
          "internalType": "uint256",
          "name": "",
          "type": "uint256"
        }
      ],
      "stateMutability": "view",
      "type": "function",
      "constant": true
    },
    {
      "inputs": [],
      "name": "getCallbackGasLimit",
      "outputs": [
        {
          "internalType": "uint256",
          "name": "",
          "type": "uint256"
        }
      ],
      "stateMutability": "view",
      "type": "function",
      "constant": true
    }
  ],
  "bytecode": "0x60a06040526002600455600060058190556006819055600160075566071afd498d00006008556009805460ff600160481b03600160e81b0319167c6168499c0cffcacd319c818142124b7a15e857ab0000000000000000001790557fd89b2bf150e3b9e13446986e571fb9cab24b13cea0a43ea20a6049a85cc807cc600a55600b80546001600160501b03191666010003002ab980179055600c55348015620000a757600080fd5b5060405162001e7638038062001e76833981016040819052620000ca91620002a3565b600954690100000000000000000090046001600160a01b0316608052620000f8620000f23390565b62000253565b600380546001600160a01b039283166001600160a01b031991821617909155600980546001805484166901000000000000000000830486161781556001600160401b039590951661010002610100600160481b0319909116179055604080516080810182526000808252602082018181529282018181526060830182815260028054988901815590925291517f405787fa12a823e0f2b7631cc41b3ba8828b3321ca811111fa75cd3aa3bb5ace60049097029687018054861691871691909117905591517f405787fa12a823e0f2b7631cc41b3ba8828b3321ca811111fa75cd3aa3bb5acf8601805490941694169390931790915590517f405787fa12a823e0f2b7631cc41b3ba8828b3321ca811111fa75cd3aa3bb5ad0830155517f405787fa12a823e0f2b7631cc41b3ba8828b3321ca811111fa75cd3aa3bb5ad1909101805463ffffffff191660e09290921c919091179055620002f8565b600080546001600160a01b038381166001600160a01b0319831681178455604051919092169283917f8be0079c531659141344cd1fd0a4f28419497f9722a3daafe3b4186f6b6457e09190a35050565b60008060408385031215620002b757600080fd5b82516001600160401b0381168114620002cf57600080fd5b60208401519092506001600160a01b0381168114620002ed57600080fd5b809150509250929050565b608051611b656200031160003960005050611b656000f3fe6080604052600436106101815760003560e01c8063680072d0116100d1578063c75da8d51161008a578063f23a6e6111610064578063f23a6e6114610433578063f2fde38b14610479578063f84160df14610499578063f986ba84146104bb57600080fd5b8063c75da8d5146103d8578063d0bcb5b3146103f8578063de8be8e71461041857600080fd5b8063680072d01461031b578063715018a6146103305780638da5cb5b14610345578063a4eb718c1461036d578063a66d66031461038d578063a9a0fb40146103c357600080fd5b806340463dc91161013e578063596adc2411610118578063596adc24146102be5780635e38d73d146102d35780635f189322146102f35780635fcd31061461030657600080fd5b806340463dc9146102695780635383aeca1461028957806355cf8307146102a957600080fd5b806301ffc9a714610186578063150b7a02146101bb5780631fe543e314610200578063217b6da61461022257806327cd89741461022a5780633ac1162b14610249575b600080fd5b34801561019257600080fd5b506101a66101a13660046115ef565b6104d0565b60405190151581526020015b60405180910390f35b3480156101c757600080fd5b506101e76101d6366004611671565b630a85bd0160e11b95945050505050565b6040516001600160e01b031990911681526020016101b2565b34801561020c57600080fd5b5061022061021b3660046116f6565b610522565b005b610220610582565b34801561023657600080fd5b506006545b6040519081526020016101b2565b34801561025557600080fd5b506102206102643660046117c0565b6105be565b34801561027557600080fd5b506102206102843660046117e2565b6105d9565b34801561029557600080fd5b506102206102a43660046117e2565b6105e6565b3480156102b557600080fd5b5061023b6106c3565b3480156102ca57600080fd5b5060055461023b565b3480156102df57600080fd5b506102206102ee3660046117e2565b6106e0565b6102206103013660046117fb565b610760565b34801561031257600080fd5b506102206109b3565b34801561032757600080fd5b5060085461023b565b34801561033c57600080fd5b50610220610aa0565b34801561035157600080fd5b506000546040516001600160a01b0390911681526020016101b2565b34801561037957600080fd5b50610220610388366004611837565b610ab2565b34801561039957600080fd5b5061023b6103a836600461185d565b6001600160a01b03166000908152600f602052604090205490565b3480156103cf57600080fd5b5060075461023b565b3480156103e457600080fd5b506102206103f33660046117e2565b610ad6565b34801561040457600080fd5b506102206104133660046117fb565b610ae3565b34801561042457600080fd5b50600b5463ffffffff1661023b565b34801561043f57600080fd5b506101e761044e366004611878565b7ff23a6e612e1ff4830e658fe43f4e3cb4a5f8170bd5d9e69fb5d7a7fa9e4fdf979695505050505050565b34801561048557600080fd5b5061022061049436600461185d565b610c86565b3480156104a557600080fd5b506104ae610cfc565b6040516101b291906118f0565b3480156104c757600080fd5b50600c5461023b565b60006001600160e01b03198216636cdb3d1360e11b148061050157506001600160e01b031982166380ac58cd60e01b145b8061051c57506301ffc9a760e01b6001600160e01b03198316145b92915050565b600954600160481b90046001600160a01b031633146105745760095460405163073e64fd60e21b8152336004820152600160481b9091046001600160a01b031660248201526044015b60405180910390fd5b61057e8282610d98565b5050565b6003546040516001600160a01b03909116904780156108fc02916000818181858888f193505050501580156105bb573d6000803e3d6000fd5b50565b6105c6610e44565b6009805460ff1916911515919091179055565b6105e1610e44565b600455565b6105ee610e44565b6000600282815481106106035761060361196a565b600091825260208083206040805160808101825260049490940290910180546001600160a01b039081168086526001830154909116938501849052600282015492850183905260039091015460e01b6001600160e01b031916606085018190529395506106739490939192610e9e565b61067c82610f37565b6020808201516001600160a01b03166000908152600f909152604081208054916106a583611996565b9091555050600580549060006106ba83611996565b91905055505050565b6000600c546106d160055490565b6106db91906119ad565b905090565b6106e8610e44565b60008181526011602052604090205460ff16156107475760405162461bcd60e51b815260206004820152601e60248201527f447261772068617320616c72656479206265656e20636f6d706c657465640000604482015260640161056b565b6000818152601060205260409020546105bb908261105a565b60095460ff16156107835760405162461bcd60e51b815260040161056b906119c4565b60085434146107d45760405162461bcd60e51b815260206004820152601f60248201527f4e65656420746f20696e636c75646520746865206465706f7369742066656500604482015260640161056b565b600754336000908152600f6020526040902054106108345760405162461bcd60e51b815260206004820152601d60248201527f4d617820456e74727973205065722057616c6c65742052656163686564000000604482015260640161056b565b610842838383600133610e9e565b604080516080810182526001600160a01b0385811682523360208084018281526001600160e01b031987166060860190815285870189815260028054600180820183556000928352985160049091027f405787fa12a823e0f2b7631cc41b3ba8828b3321ca811111fa75cd3aa3bb5ace81018054928a166001600160a01b031993841617905594517f405787fa12a823e0f2b7631cc41b3ba8828b3321ca811111fa75cd3aa3bb5acf8601805491909916911617909655517f405787fa12a823e0f2b7631cc41b3ba8828b3321ca811111fa75cd3aa3bb5ad0830155517f405787fa12a823e0f2b7631cc41b3ba8828b3321ca811111fa75cd3aa3bb5ad1909101805460e09290921c63ffffffff19909216919091179055818352600f9052908390208054830190556005805490920190915590517f24d55d158e9158d4e7ea078fe9f4fb44769ff2ebd7b64818d1251612edcc5223916109a69186908690611a0a565b60405180910390a1505050565b336000908152600f6020526040902054610a0f5760405162461bcd60e51b815260206004820152601f60248201527f4e65656420746f206465706f73697420746f2068617665206120647261772100604482015260640161056b565b600454610a1a6106c3565b11610a735760405162461bcd60e51b8152602060048201526024808201527f4e6f7420456e6f756768204e46547320696e20746865207661756c7420746f206044820152636472617760e01b606482015260840161056b565b60095460ff1615610a965760405162461bcd60e51b815260040161056b906119c4565b610a9e61124e565b565b610aa8610e44565b610a9e600061140d565b610aba610e44565b600b805463ffffffff191663ffffffff92909216919091179055565b610ade610e44565b600855565b60095460ff1615610b065760405162461bcd60e51b815260040161056b906119c4565b610b14838383600133610e9e565b604080516080810182526000602082018181526001600160a01b0387811684526001600160e01b031986166060850190815294840187815260028054600181018255908552855160049091027f405787fa12a823e0f2b7631cc41b3ba8828b3321ca811111fa75cd3aa3bb5ace810180549285166001600160a01b031993841617905593517f405787fa12a823e0f2b7631cc41b3ba8828b3321ca811111fa75cd3aa3bb5acf8501805491909416911617909155517f405787fa12a823e0f2b7631cc41b3ba8828b3321ca811111fa75cd3aa3bb5ad082015592517f405787fa12a823e0f2b7631cc41b3ba8828b3321ca811111fa75cd3aa3bb5ad1909301805460e09490941c63ffffffff1990941693909317909255600580549192610c3a83611a2e565b91905055507fe120976a4e9259bd4b1a9ab41025d1e66e0269f611a52e3a28ecfdaab3ea875e610c673390565b8585604051610c7893929190611a0a565b60405180910390a150505050565b610c8e610e44565b6001600160a01b038116610cf35760405162461bcd60e51b815260206004820152602660248201527f4f776e61626c653a206e6577206f776e657220697320746865207a65726f206160448201526564647265737360d01b606482015260840161056b565b6105bb8161140d565b60606002805480602002602001604051908101604052809291908181526020016000905b82821015610d8f576000848152602090819020604080516080810182526004860290920180546001600160a01b039081168452600180830154909116848601526002820154928401929092526003015460e01b6001600160e01b03191660608301529083529092019101610d20565b50505050905090565b600081600081518110610dad57610dad61196a565b6020908102919091018101516000858152600e8352604080822080548352601085528183208490555482526011909352919091205490915060ff1615610e355760405162461bcd60e51b815260206004820152601e60248201527f447261772068617320616c72656479206265656e20636f6d706c657465640000604482015260640161056b565b610e3f818461105a565b505050565b6000546001600160a01b03163314610a9e5760405162461bcd60e51b815260206004820181905260248201527f4f776e61626c653a2063616c6c6572206973206e6f7420746865206f776e6572604482015260640161056b565b6001600160e01b031983166380ac58cd60e01b1415610ed7578115610ecc57610ec7858561145d565b610f30565b610ec78585836114c3565b6001600160e01b03198316636cdb3d1360e11b1415610f0b578115610f0057610ec7858561152a565b610ec7858583611562565b60405163c6d2d68160e01b81526001600160e01b03198416600482015260240161056b565b5050505050565b6002548110610f435750565b805b60028160010181548110610f5b57610f5b61196a565b906000526020600020906004020160028281548110610f7c57610f7c61196a565b60009182526020909120825460049092020180546001600160a01b03199081166001600160a01b03938416178255600180850154818401805490931694169390931790556002808401548183015560039384015493909101805463ffffffff90941663ffffffff19909416939093179092559054910190600019018110610f4557600280548061100e5761100e611a49565b60008281526020812060046000199093019283020180546001600160a01b0319908116825560018201805490911690556002810191909155600301805463ffffffff1916905590555050565b60006110646106c3565b61106e9084611a75565b9050600181101561107d576001015b6000828152600d6020526040902054600280546001600160a01b0390921691839081106110ac576110ac61196a565b60009182526020909120600160049092020101546001600160a01b031614156110fb5760028110156110e05760010161107d565b600554428202816110f3576110f3611a5f565b06905061107d565b6000600282815481106111105761111061196a565b600091825260208083206040805160808101825260049490940290910180546001600160a01b039081168086526001830154821686860152600283015486850181905260039093015460e01b6001600160e01b031916606087018190528a8852600d9095529286205494965061118c9592949193929116610e9e565b61119582610f37565b600580549060006111a583611996565b9091555050600c80549060006111ba83611996565b90915550506000838152600e602081815260408084208054855260118352818520805460ff19166001179055878552600d83529381902054855186830151948452945482516001600160a01b039283168152919095169281019290925281019190915260608101919091527e9ceabaf8fad402446046ae0fa4d40161af681ddcb5c5d4d60995dc1169951d90608001610c78565b600154600a54600954600b546040516305d3b1d360e41b8152600481019390935261010090910467ffffffffffffffff166024830152640100000000810461ffff16604483015263ffffffff808216606484015266010000000000009091041660848201526000916001600160a01b031690635d3b1d309060a4016020604051808303816000875af11580156112e8573d6000803e3d6000fd5b505050506040513d601f19601f8201168201806040525081019061130c9190611a97565b905080156113f157600680543391600061132583611a2e565b90915550506000828152600d6020526040812080546001600160a01b0319166001600160a01b038416179055600c80549161135f83611a2e565b90915550506006546000838152600e6020908152604080832093909355600d8152828220546001600160a01b03168252600f90529081208054916113a283611996565b9091555050600654604080516001600160a01b038416815260208101929092527f5944e9edb96badbedc228d50e87e0ff6a5f5b910ddf17d25b465314cb2529c11910160405180910390a15050565b6040516392c82a2f60e01b81526004810182905260240161056b565b600080546001600160a01b038381166001600160a01b0319831681178455604051919092169283917f8be0079c531659141344cd1fd0a4f28419497f9722a3daafe3b4186f6b6457e09190a35050565b6040516323b872dd60e01b81526001600160a01b038316906323b872dd9061148d90339030908690600401611a0a565b600060405180830381600087803b1580156114a757600080fd5b505af11580156114bb573d6000803e3d6000fd5b505050505050565b6040516323b872dd60e01b81526001600160a01b038416906323b872dd906114f390309085908790600401611a0a565b600060405180830381600087803b15801561150d57600080fd5b505af1158015611521573d6000803e3d6000fd5b50505050505050565b604051637921219560e11b81526060906001600160a01b0384169063f242432a906114f3903390309087906001908890600401611ab0565b604051637921219560e11b81526060906001600160a01b0385169063f242432a9061159a903090869088906001908890600401611ab0565b600060405180830381600087803b1580156115b457600080fd5b505af11580156115c8573d6000803e3d6000fd5b5050505050505050565b80356001600160e01b0319811681146115ea57600080fd5b919050565b60006020828403121561160157600080fd5b61160a826115d2565b9392505050565b80356001600160a01b03811681146115ea57600080fd5b60008083601f84011261163a57600080fd5b50813567ffffffffffffffff81111561165257600080fd5b60208301915083602082850101111561166a57600080fd5b9250929050565b60008060008060006080868803121561168957600080fd5b61169286611611565b94506116a060208701611611565b935060408601359250606086013567ffffffffffffffff8111156116c357600080fd5b6116cf88828901611628565b969995985093965092949392505050565b634e487b7160e01b600052604160045260246000fd5b6000806040838503121561170957600080fd5b8235915060208084013567ffffffffffffffff8082111561172957600080fd5b818601915086601f83011261173d57600080fd5b81358181111561174f5761174f6116e0565b8060051b604051601f19603f83011681018181108582111715611774576117746116e0565b60405291825284820192508381018501918983111561179257600080fd5b938501935b828510156117b057843584529385019392850192611797565b8096505050505050509250929050565b6000602082840312156117d257600080fd5b8135801515811461160a57600080fd5b6000602082840312156117f457600080fd5b5035919050565b60008060006060848603121561181057600080fd5b61181984611611565b92506020840135915061182e604085016115d2565b90509250925092565b60006020828403121561184957600080fd5b813563ffffffff8116811461160a57600080fd5b60006020828403121561186f57600080fd5b61160a82611611565b60008060008060008060a0878903121561189157600080fd5b61189a87611611565b95506118a860208801611611565b94506040870135935060608701359250608087013567ffffffffffffffff8111156118d257600080fd5b6118de89828a01611628565b979a9699509497509295939492505050565b602080825282518282018190526000919060409081850190868401855b8281101561195d57815180516001600160a01b03908116865287820151168786015285810151868601526060908101516001600160e01b031916908501526080909301929085019060010161190d565b5091979650505050505050565b634e487b7160e01b600052603260045260246000fd5b634e487b7160e01b600052601160045260246000fd5b6000816119a5576119a5611980565b506000190190565b6000828210156119bf576119bf611980565b500390565b60208082526026908201527f536f7272792074686520447261772069732050617573656420617420746865206040820152651b5bdb595b9d60d21b606082015260800190565b6001600160a01b039384168152919092166020820152604081019190915260600190565b6000600019821415611a4257611a42611980565b5060010190565b634e487b7160e01b600052603160045260246000fd5b634e487b7160e01b600052601260045260246000fd5b600082611a9257634e487b7160e01b600052601260045260246000fd5b500690565b600060208284031215611aa957600080fd5b5051919050565b600060018060a01b03808816835260208188168185015286604085015285606085015260a06080850152845191508160a085015260005b82811015611b035785810182015185820160c001528101611ae7565b82811115611b1557600060c084870101525b5050601f01601f19169190910160c001969550505050505056fea264697066735822122081fbacc453a1200c87d18a0fe47268a00bbad96d01acc018139acf041697cb8a64736f6c634300080b0033",
  "immutableReferences": {},
  "source": "// SPDX-License-Identifier: MIT\npragma solidity >=0.4.22 <0.9.0;\n//  Libarys\nimport \"@openzeppelin/contracts/utils/Address.sol\";\nimport \"@openzeppelin/contracts/utils/Strings.sol\";\n//  Security\nimport \"@openzeppelin/contracts/access/Ownable.sol\";\n//  ChainLink\nimport \"@chainlink/contracts/src/v0.8/interfaces/VRFCoordinatorV2Interface.sol\";\nimport \"@chainlink/contracts/src/v0.8/VRFConsumerBaseV2.sol\";\n//  Interfaces\nimport \"./interfaces/IdegenExchangeData.sol\";\nimport \"@openzeppelin/contracts/token/ERC721/IERC721.sol\";\nimport \"@openzeppelin/contracts/token/ERC1155/IERC1155.sol\";\n//  Interface Receiver's\nimport \"@openzeppelin/contracts/utils/introspection/ERC165.sol\";\nimport \"@openzeppelin/contracts/token/ERC1155/IERC1155Receiver.sol\";\nimport \"@openzeppelin/contracts/token/ERC721/IERC721Receiver.sol\";\n\n/**\n*   @dev    -   IERC721 interfaceId - 0x80ac58cd\n*   @dev    -   IERC1155 interfaceId - \n*\n */\n\ncontract degenExchangeRegistry is VRFConsumerBaseV2, ERC165, IdegenExchangeData, Ownable {\n    VRFCoordinatorV2Interface COORDINATOR;\n\n    using Address for address;\n    using Strings for uint256;\n\n    TokenData[] private  _tokensInDraw;\n    \n    address private FEE_PAYABLE_ADDRESS;\n    uint256 private MINIMAL_TOKENS_FOR_DRAW = 2;    //  +1 for actual number \n    uint256 private DEPOSIT_COUNT = 0;\n    uint256 private DRAW_COUNT = 0;\n    uint256 private MAX_CONCURRENT_ENTRYS_PER_WALLET = 1;   \n    uint256 private DEPOSIT_FEE = 0.002 ether;\n\n    bool private _paused = false;\n\n\n     // The RNG subscription ID.\n     uint64 private _subscriptionId ;\n     // Rinkeby coordinator\n     address private _vrfCoordinator = 0x6168499c0cFfCaCD319c818142124B7A15E857ab;\n     // The gas lane to use, which specifies the maximum gas price to bump to.\n     bytes32 private _keyHash = 0xd89b2bf150e3b9e13446986e571fb9cab24b13cea0a43ea20a6049a85cc807cc;\n     //  Callback gas cost\n     uint32 private _callbackGaslimit = 2800000;\n     //  How many confirmations to wait for, min 3\n     uint16 _minimumRequestConfirmations = 3;\n     //  How many sets of random numbers\n     uint32 _amountOfNumbersToRequest = 1;\n     //  Draws in cue\n     uint256 private _DrawsInLine = 0;\n     //  Mapping of requestIds to Draw trigger address\n     mapping(uint256 => address) internal _requestIdMapping;\n     //  Mapping of requestIds to DrawId\n     mapping(uint256 => uint256) internal _drawTriggers;\n     //  Mapping of amount of draws to spend to wallet address\n     mapping(address => uint256) internal userDepositCount_;\n\n     mapping(uint256 => uint256) private _DrawIdToVRN;\n\n     mapping(uint256 => bool) private _completeDraws;\n\n    constructor(uint64 subscriptionId_, address feeWallet_)VRFConsumerBaseV2(_vrfCoordinator){\n        FEE_PAYABLE_ADDRESS = feeWallet_;\n        COORDINATOR = VRFCoordinatorV2Interface(_vrfCoordinator);\n        _subscriptionId = subscriptionId_;\n\n        //Add an Empty entry to the array to full index 0\n        TokenData memory insertZero;\n        insertZero.contractOfToken = 0x0000000000000000000000000000000000000000;\n        insertZero.ownerAddress = 0x0000000000000000000000000000000000000000;\n        insertZero.tokenId = 0;\n        \n        _tokensInDraw.push(insertZero);\n    }\n\n    modifier addressHasDraws(){\n        require(userDepositCount_[_msgSender()] > 0, \"Need to deposit to have a draw!\");\n        _;\n    }\n\n    modifier activeNFTCount(){\n        require(getAvalabuleNFTsInDraw() > MINIMAL_TOKENS_FOR_DRAW, \"Not Enough NFTs in the vault to draw\");\n        _;\n    }\n\n    modifier isPaused(){\n        require(!_paused, \"Sorry the Draw is Paused at the moment\");\n        _;\n    }\n    /**\n    *           Deposit functions\n    */\n    function EnterNFTDraw(address addressForNFTContract_, uint256 tokenId_, bytes4 interfaceId_) public payable isPaused{\n        require(msg.value == DEPOSIT_FEE, \"Need to include the deposit fee\");\n        require(userDepositCount_[_msgSender()]< MAX_CONCURRENT_ENTRYS_PER_WALLET, \"Max Entrys Per Wallet Reached\");\n\n        _switchTransferInterface(addressForNFTContract_, tokenId_, interfaceId_, 1, _msgSender());\n\n        unchecked {\n            TokenData memory newEntry;\n            newEntry.contractOfToken = addressForNFTContract_;\n            newEntry.ownerAddress = _msgSender();\n            newEntry.interfaceId = interfaceId_;\n            newEntry.tokenId = tokenId_;\n\n            _tokensInDraw.push(newEntry);\n            userDepositCount_[_msgSender()] ++;\n            DEPOSIT_COUNT ++;\n        }\n\n        emit DepositedNFT(_msgSender(), addressForNFTContract_, tokenId_);\n    }\n\n    /**\n    *       @notice -   THIS FUNCTION IS ONE WAY. YOU DO NOT GET A DRAW FOR SUBMITTING\n    *                   Used for entering an NFT to the pool but not reciving a draw entry\n    *                   Made for NFT projects to build their comunity\n    */\n    function submitNFT(address addressForNFTContract_, uint256 tokenId_, bytes4 interfaceId_)public isPaused {\n        _switchTransferInterface(addressForNFTContract_, tokenId_, interfaceId_, 1, _msgSender());\n\n        TokenData memory newEntry;\n        newEntry.contractOfToken = addressForNFTContract_;\n        newEntry.ownerAddress = 0x0000000000000000000000000000000000000000;\n        newEntry.interfaceId = interfaceId_;\n        newEntry.tokenId = tokenId_;\n\n        _tokensInDraw.push(newEntry);\n        DEPOSIT_COUNT ++;\n\n        emit GiftedNFT(_msgSender(), addressForNFTContract_, tokenId_);\n    }\n\n    /**\n    *           Draw functions\n    */\n    function TriggerDraw()public addressHasDraws activeNFTCount isPaused{\n        _requestRandomNumbers();\n    }\n\n    function _requestRandomNumbers()internal {\n        uint256 requestId_ = COORDINATOR.requestRandomWords(\n            _keyHash, \n            _subscriptionId, \n            _minimumRequestConfirmations, \n            _callbackGaslimit, \n            _amountOfNumbersToRequest\n        );\n        \n        if(requestId_ > 0){\n            address requester_ = _msgSender();\n            DRAW_COUNT ++;\n            _requestIdMapping[requestId_] = requester_;\n            _DrawsInLine ++;\n            _drawTriggers[requestId_] = DRAW_COUNT;\n            userDepositCount_[_requestIdMapping[requestId_]] --;\n            emit DrawInitiated(requester_, DRAW_COUNT);\n        } else {\n            revert FaildToRequestRandomNumbers(requestId_);\n        }\n    }\n\n     function forceFullfillTrigger(uint256 drawId_)public onlyOwner {\n    require(!_completeDraws[drawId_], \"Draw has alredy been completed\");\n    _fullfillFinalDraw(_DrawIdToVRN[drawId_], drawId_);\n   }\n\n    function rawFulfillRandomWords(uint256 requestId, uint256[] memory randomWords) external override {\n    if (msg.sender != _vrfCoordinator) {\n      revert OnlyCoordinatorCanFulfill(msg.sender, _vrfCoordinator);\n    }\n    fulfillRandomWords(requestId, randomWords);\n  }\n    function fulfillRandomWords(\n        uint256 requestId,\n        uint256[] memory randomWords\n      ) internal override {\n        uint256 newNumber = randomWords[0];\n\n        _DrawIdToVRN[_drawTriggers[requestId]] = newNumber;\n        require(_requestIdMapping[requestId] == address(_requestIdMapping[requestId]), \"Request ID Not found\");\n        require(!_completeDraws[_drawTriggers[requestId]], \"Draw has alredy been completed\");\n        _fullfillFinalDraw(newNumber, requestId);      \n    } \n\n    function _fullfillFinalDraw(uint256 returnedNumber_, uint256 requestId_) internal {\n        uint256 roll = returnedNumber_ % getAvalabuleNFTsInDraw();\n        \n        unchecked {\n            if(roll < 1) roll ++;\n            while(_tokensInDraw[roll].ownerAddress == _requestIdMapping[requestId_] ){\n                if(roll < 2){\n                    roll ++; \n                } else {\n                    roll = roll * block.timestamp % DEPOSIT_COUNT;\n                }\n            }\n        }\n\n        TokenData memory drawnToken = _tokensInDraw[roll];\n        _switchTransferInterface(drawnToken.contractOfToken, drawnToken.tokenId, drawnToken.interfaceId, 0, _requestIdMapping[requestId_]);\n        _removeNFTFromDrawArray(roll);\n\n        \n        DEPOSIT_COUNT --;\n        _DrawsInLine --;\n\n        _completeDraws[_drawTriggers[requestId_]] = true;\n        emit DrawComplete(_requestIdMapping[requestId_], drawnToken.contractOfToken, drawnToken.tokenId,  _drawTriggers[requestId_]);        \n    }\n\n    function _removeNFTFromDrawArray(uint index_) internal {\n        if(index_ >= _tokensInDraw.length)return;\n\n        unchecked {\n            uint i = index_;\n            do { \n                _tokensInDraw[i] = _tokensInDraw[i+1];\n                i++;\n            } while (i<_tokensInDraw.length-1);\n            _tokensInDraw.pop();\n        }\n\n    }\n\n\n    /**\n    *           Transfering In & Out\n    */\n\n    /**\n    *\n    *   @notice    -   1 = In && 0 = Out\n    *\n    */\n    function _switchTransferInterface(address addressForNFTContract_, uint256 tokenId_, bytes4 interfaceId_, uint256 inOrOut_, address reciver_) internal {\n        if(interfaceId_ == type(IERC721).interfaceId){\n            if (inOrOut_ > 0){\n                 _transferInERC721(addressForNFTContract_, tokenId_); \n            }else{ \n                _transferOutERC721(addressForNFTContract_, tokenId_, reciver_);\n            }\n            return;\n        }\n        if(interfaceId_ == type(IERC1155).interfaceId){\n            if(inOrOut_ > 0 ) {\n                _transferInERC1155(addressForNFTContract_, tokenId_);\n            }else {\n                _transferOutERC1155(addressForNFTContract_, tokenId_, reciver_);\n            }\n            return;\n        }\n        revert InvaliedContractInterfce(interfaceId_);\n    }\n\n    function _transferInERC721(address addressForNFTContract_, uint256 tokenId_)private {\n        IERC721(addressForNFTContract_).transferFrom(_msgSender(), address(this), tokenId_);\n    }\n\n    function _transferInERC1155(address addressForNFTContract_, uint256 tokenId_)private {\n        bytes memory data;\n        IERC1155(addressForNFTContract_).safeTransferFrom(_msgSender(), address(this), tokenId_, 1, data);\n    }\n\n    function _transferOutERC721(address addressForNFTContract_, uint256 tokenId_, address reciver_)private {\n        IERC721(addressForNFTContract_).transferFrom(address(this), reciver_, tokenId_);\n    }\n\n    function _transferOutERC1155(address addressForNFTContract_, uint256 tokenId_, address reciver_)private {\n        bytes memory data;\n        IERC1155(addressForNFTContract_).safeTransferFrom(address(this), reciver_, tokenId_, 1, data);\n    }\n\n\n    /**\n    *           Supported Interfaces & Token IO\n    */\n     function supportsInterface(bytes4 interfaceId_) public view virtual override(ERC165) returns (bool) {\n        return\n            interfaceId_ == type(IERC1155).interfaceId || interfaceId_ == type(IERC721).interfaceId || super.supportsInterface(interfaceId_);\n    }\n\n    function onERC721Received(\n        address operator_,\n        address from_,\n        uint256 tokenId_,\n        bytes calldata data_\n    ) external pure returns (bytes4){\n        return IERC721Receiver.onERC721Received.selector;\n    }\n    function onERC1155Received(\n        address operator_,\n        address from_,\n        uint256 id_,\n        uint256 value_,\n        bytes calldata data_\n    ) external pure returns (bytes4){\n        return bytes4(keccak256(\"onERC1155Received(address,address,uint256,uint256,bytes)\"));\n    }\n\n/**\n*       ONLY FOR DEVELOPMENT\n*       This will be replaced with a direct submition function to buy link and submit to the VRN service\n*/\n    function removeETH()\n    public\n    payable\n{\n    payable(FEE_PAYABLE_ADDRESS).transfer(address(this).balance);\n}\n\nfunction removeNFTEntryFromDraw(uint256 NFTIndex_)public onlyOwner {\n    TokenData memory toRemove = _tokensInDraw[NFTIndex_];\n    _switchTransferInterface(toRemove.contractOfToken, toRemove.tokenId, toRemove.interfaceId, 0, toRemove.ownerAddress);\n    _removeNFTFromDrawArray(NFTIndex_);\n    userDepositCount_[toRemove.ownerAddress] --;\n    DEPOSIT_COUNT --;\n}\n    /**\n    *          Setters\n    */\n\nfunction setNewMinNFT(uint256 newMin_)public onlyOwner{\n    MINIMAL_TOKENS_FOR_DRAW = newMin_;\n}\n\n function setCallbackGasLimit(uint32 newGaslimit_)public onlyOwner {\n        _callbackGaslimit = newGaslimit_;\n    }\n    function setDrawPaused(bool paused_)public onlyOwner {\n        _paused = paused_;\n    }\n    function setDrawFee(uint256 amount_)public onlyOwner {\n        DEPOSIT_FEE = amount_;\n    }\n\n    /**\n    *           Getters\n    */\nfunction getAllTokensInDraw()public view returns(TokenData[] memory){\n    return _tokensInDraw;\n}\n\nfunction getNFTsDepositedCount()public view returns(uint256){\n    return DEPOSIT_COUNT;\n}\n\nfunction getDrawFee()public view returns(uint256){\n    return DEPOSIT_FEE;\n}\n\nfunction getAvalabuleNFTsInDraw()public view returns(uint256){\n    return getNFTsDepositedCount() - _DrawsInLine;\n}\n\nfunction getTotalDrawsHappened()public view returns(uint256){\n    return DRAW_COUNT;\n}\nfunction getAddressRemainingPlays(address playersAddress_)public view returns(uint256){\n    return userDepositCount_[playersAddress_];\n}\nfunction getMaxEntrysPerWallet()public view returns(uint256){\n    return MAX_CONCURRENT_ENTRYS_PER_WALLET;\n}\n\nfunction getPendingDrawCount()public view returns(uint256){\n    return _DrawsInLine;\n}\n\nfunction getCallbackGasLimit()public view returns(uint256){\n    return _callbackGaslimit;\n}\n\n}\n",
  "sourcePath": "/Users/tuck/Documents/Nylon Blocks/Projects/degenXchange/degenXchange-onChain/contracts/degenExchangeRegistry.sol",
  "compiler": {
    "name": "solc",
    "version": "0.8.11+commit.d7f03943.Emscripten.clang"
  },
  "schemaVersion": "3.4.9",
  "updatedAt": "2022-08-30T12:46:54.496Z",
  "networkType": "ethereum",
  "devdoc": {
    "details": "-   IERC721 interfaceId - 0x80ac58cd-   IERC1155 interfaceId - ",
    "kind": "dev",
    "methods": {
      "owner()": {
        "details": "Returns the address of the current owner."
      },
      "renounceOwnership()": {
        "details": "Leaves the contract without owner. It will not be possible to call `onlyOwner` functions anymore. Can only be called by the current owner. NOTE: Renouncing ownership will leave the contract without an owner, thereby removing any functionality that is only available to the owner."
      },
      "transferOwnership(address)": {
        "details": "Transfers ownership of the contract to a new account (`newOwner`). Can only be called by the current owner."
      }
    },
    "version": 1
  },
  "userdoc": {
    "kind": "user",
    "methods": {
      "EnterNFTDraw(address,uint256,bytes4)": {
        "notice": "Deposit functions"
      },
      "TriggerDraw()": {
        "notice": "Draw functions"
      },
      "getAllTokensInDraw()": {
        "notice": "Getters"
      },
      "removeETH()": {
        "notice": "ONLY FOR DEVELOPMENT       This will be replaced with a direct submition function to buy link and submit to the VRN service"
      },
      "setNewMinNFT(uint256)": {
        "notice": "Setters"
      },
      "submitNFT(address,uint256,bytes4)": {
        "notice": "-   THIS FUNCTION IS ONE WAY. YOU DO NOT GET A DRAW FOR SUBMITTING                   Used for entering an NFT to the pool but not reciving a draw entry                   Made for NFT projects to build their comunity"
      },
      "supportsInterface(bytes4)": {
        "notice": "Supported Interfaces & Token IO"
      }
    },
    "version": 1
  }
}